:20000000483F002039A2000001CA011001CA011001CA011001CA011001CA011001CA011036
:1C00200001CA011001CA011001CA011001CA011001CA011001CA01103FCA011082
:20003C001FB58DF80C002448016824480088E0B123480068014218D022480068014204D1FD
:20005C0021480068008801420FD0224840F29353046800930CA201929DF80C001C4B0290AD
:20007C001A881A4B186804A3A047032003A901220AF018F900901FBD70726F6A6563745F90
:20009C007A65726F2E6300C02843422920474150205374617465206368616E67653A20253F
:2000BC00642C2053656E64696E67206D736720746F206170702E00C0ECE2000032E3000010
:2000DC00400500003C0500004405000008E300008405000000E30000014908607047C0466F
:0400FC00B02F002001
:200100003C000000000000000000000034010000000000000000000001000000000000006D
:1C01200000000000000000000000000001000000000000000800000000000000BA
:20013C00340000000000000000000000680100000000000000000000010000000000000005
:14015C00010000000000000000000000080000000000000086
:2001700030000000000000000000000098010000040000000000000001000000FFFFFFFFA5
:10019000FF00000001000000080000000000000057
:2001A0002C0000000000000000000000C4010000040000000000000001000000FFFFFFFF4D
:0C01C000FFFFFFFF08000000000000002F
:2001CC0034050000E401000099A1011095A70110A5C2011009B2011045B80110000000000B
:0801EC00000000002E000000DD
:2001F400280000000000000000000000140200000000000000000000FFFFFFFF00000000B1
:080214000800000000000000DA
:20021C00300500003002000069C201106DC101101FC2011095BA011000000000000000008E
:04023C002C00000092
:20024000300500005402000075C20110A9B601109DBF011049B601100000000000000000DE
:040260002D0000006D
:200264002400000000000000000000008002000000000000000000000000000008000000CC
:040284000000000076
:20028800240000000000000000000000A40200000000000000000000000000000800000084
:0402A8000000000052
:2002AC00240000000000000000000000C8020000000000000100000000000000080000003B
:0402CC00000000002E
:2002D00000000000901F00200400000000000000000000002000000070010000300000007A
:2002F0001C020000981F00200400000000000000000000000C00000030040000180000009D
:2003100040020000A01F002004000000000000000000000024000000480400001800000020
:2003300000000000A81F002004000000000000000000000010000000A00100002C000000E5
:20035000CC010000B01F002004000000000000000000000020000000640200002400000023
:20037000FFFFFFFFB81F0020040000000000000000000000280000008802000024000000A0
:20039000FFFFFFFFC01F0020040000000000000000000000580000003C0100003400000085
:2003B000FFFFFFFFC81F00200400000000000000000000001000000060040000180000009A
:2003D000FFFFFFFFD01F00200400000000000000000000001C000000AC0200002400000010
:2003F000FFFFFFFFD81F002004000000000000000000000038000000F40100002800000081
:20041000FFFFFFFFE01F002004000000000000000000000054000000000100003C0000001C
:1804300018000000000000000000000040040000080000000000000050
:1804480018000000000000000000000058040000080000000000000020
:18046000180000000000000000000000700400000800000000000000F0
:0804780002000000B8E20000E0
:0404800009F0E0BAE5
:040484000100000073
:0404880000008C0FD5
:04048C000000BC0FA1
:040490003200000036
:040494000100000063
:04049800081F002019
:04049C00000200005A
:0404A0000000000058
:0404A40001CA011078
:0404A8000000000050
:0404AC00000000004C
:0404B0000800000040
:0404B40000007612BC
:0404B800F01D002013
:0404BC00010000003B
:0404C000201F0020D9
:0404C400080000002C
:0404C8000000000030
:0404CC00000000002C
:0404D0000000000028
:0404D4000000000024
:0404D8000000000020
:0404DC00010000001B
:0404E000581E002082
:0404E400060000000E
:0404E800010000000F
:0404EC005C1D002073
:0404F0000000000008
:0404F4000000000004
:0404F80000020000FE
:0404FC0000000000FC
:02050000704742
:020502002800CF
:020504000100F4
:020506002400CF
:020508002C00C5
:02050A002D00C2
:02050C002E00BF
:02050E000100EA
:0105100001E9
:08051400030000007CE200007E
:08051C000000000000000000D7
:040524000000930D33
:040528000000AD0D15
:04052C0087C401106F
:04053000380500008A
:040534003805000086
:0405380000000000BF
:04053C0090610000CA
:0405400090610000C6
:0405440000000000B3
:04054800201F002050
:04054C002BBF0000C1
:040550002000000087
:04055400CCE10000F6
:0405580094E000002B
:04055C000DC30110BA
:0405600043B500009F
:04056400F7B60000E6
:0405680099C801101D
:04056C009BC8011017
:040570000000000087
:04057400B4C400000B
:0405780044DE00005D
:04057C005CDE000041
:040580002CDE00006D
:020584000280F3
:020586000380F0
:02058800C0179A
:02058A0001006E
:01058C00016D
:040590000000000067
:040594000000000063
:04059800000000005F
:04059C00000000005B
:0405A0002BC3000069
:0405A40035A9000075
:0405A800D1B70000C7
:0405AC0089AD000015
:0405B000EBAE0000AE
:0405B400EDB10000A5
:0405B800298B00008B
:0405BC0005C1000075
:0405C0002195000081
:0405C40011C8011049
:0405C80021C8011035
:0405CC000800000023
:0405D0002400000003
:0405D400180000000B
:0405D80028000000F7
:0405DC0020000000FB
:0405E0003C000000DB
:0405E4000C00000007
:0405E80034000000DB
:2005EC002DE9F04FADF1840D00F05EFD9648994904889648096806689548974A006806EA01
:20060C0000070F9706EA010710971768A84A1588A84A12681292A84A12681392A74A0E94C0
:20062C001268149202EA00040A401692A44A15941268179202EA00040A40A449A14800687A
:20064C001A90C439A0481B9100F1980174391C91AD491894096819920A22B2FBF1F189B2BB
:20066C001D91A5A111910820ADF820000A24ADF822404FF0FF33099308A80AF079FC002862
:20068C00F1D100200D900824ADF828400923ADF82A300AA80AF06CFCDDF830C0CDF878C095
:2006AC000028CDF834C040F07C84BDF82C004FF00108102840F0138183489DF82E100078E2
:2006CC00884240F00C81644620884FF6FF71814200F090802378913B70D01F3B40F0FF800D
:2006EC0060780E9A162840D020797E2824D07F2810D0131C5CD00F9B002B59D0109B13B996
:20070C003888064254D040F21F50009096A3019320790FE0002A4BD00F9B002B48D0109B3E
:20072C0013B93888064243D040F21A50009087A301932089314610E01499002A38D0159B3D
:20074C00002B35D0169B13B93888014230D040F215500090BEA30193207A0290DDF84CC0B4
:20076C00119B12982A46E04722E017999AB1189B8BB1199B13B9388801420CD040F2FC40C7
:20078C00A0A30090DDF84CC001932079119B029012982A46E047608808210AF09BFD38B959
:2007AC00404605F0A5F948484FF00008446196E0217904F108000BF0F9F990E060780E2820
:2007CC0040F08D800E9C002C00F089800F9C002C00F08580109C14B9388806427FD040F233
:2007EC00DF40C2A400900022DDF84CC001943146029257E06088000971D333484469002C75
:20080C006DD080783049B4F802B0401C887094F804A010200AF0F8FF04F10809041C1DD008
:20082C00022115220BF061FCA4F808B084F80AA0C4F80C900AF0F8FFC44A214609F0ACFF1E
:20084C000446162C0BD10EE032E30000ECE20000400500003C0500004405000004241A48FA
:20086C004069042C34D10E9C1799002C37D0189C002C34D0199C14B9388801422FD012483F
:20088C0040F2545240690092BEA4019400790E4B0290987803900022049214460594DDF8BB
:2008AC0068C00692119B12982A46E04717E0C0468405000008E3000000E30000E8E2000061
:2008CC00F0E2000004E30000200500207C060020408800210AF0FEFC204605F009F90D9C89
:2008EC00002C00F05E83B8F1000F00F05A831E980BF08CF955E3C04670726F6A6563745FA0
:20090C007A65726F2E6300C0DCE20000BC48C0680BF0C6FD834602460E999BF808000BF1C3
:20092C000904002800F0C881401E00F01181401E00F0F780401E00F02E83401E00F0A68025
:20094C00401E24D0401E00F0038327E34D54552053697A65206368616E67653A2025642021
:20096C00627974657300C04652656365766965642047415454204D6573736167652E204F45
:20098C0070636F64653A20307825303278000B1C1ED00F9BE3B1109B13B93888064217D086
:2009AC00A378002B0CBFBEA0C0A04FF4577100220091AEA30193DDF868C00290114603923E
:2009CC00119B0491129805922A4606913146E047B4F8008010200AF017FF041C00F0DE8208
:2009EC00012113220BF081FBA4F808800020A0720246E2600AF018FFAE4A214609F0CCFE0A
:200A0C00CCE2C0464F7574676F696E67205246204649464F2066756C6C2E2052652D7363F3
:200A2C00686564756C65207472616E736D697373696F6E206F66206D736720776974682091
:200A4C006F70636F64652030782530327800C046466C6F7720636F6E74726F6C2076696F1C
:200A6C006C617465642E204F70636F6465206F66206F6666656E64696E6720415454206D5D
:200A8C0073673A2030782530327800C0002902F1090423D00F9B0BB3109B13B938880642AC
:200AAC001CD020780D2814BF99A09CA06378002B0CBF9DA1A1A140F2E132B8A30092DDF8D1
:200ACC0068C0019300220290119B03911298049211460591314606922A46E04723780D3BA4
:200AEC0016D05B1E19D10120014613E048434920436F6D6D616E6420436F6D706C6574653A
:200B0C00204576656E742072656365697665640000200121621C02F02FFB8D480BF0BCFCDC
:200B2C003CE2238841F210101B1A09D0103B40F0358220796188641D224602F01DFB2DE2C9
:200B4C0020796188621D03F025FD27E2DBC0000023880FF2502E0FF2602C9DA2B3F5895355
:200B6C0040D0103B40F01A82B4F8050010B3401E04D0401E08BFCDF87CE01CE0CDF87CC059
:200B8C0019E0C0465265747279696E67206D6573736167652077697468206F70636F64657B
:200BAC00203078253032782E20417474656D7074202564001F922079012840F0EF81002950
:200BCC0000F0EC810F9C002C00F0E881109C1CB93888064200F0E2811F994FF49760B9A451
:200BEC006CA2D5E0B4F8050060B1401E04D0401E08BFCDF880E006E0CDF880C003E0C04614
:200C0C0020050020209224799CB1641E40F0C681002900F0C3810F9C002C00F0BF81109CDE
:200C2C001CB93888064200F0B98140F25B40A3A20FE0002900F0B2810F9C002C00F0AE815E
:200C4C00109C1CB93888064200F0A8814FF48A6094A29CA495A32099009001940293039203
:200C6C000491002405942246069213E1426F6E644D677220526571756573746564207061B6
:200C8C007373636F64652E205765206172652025732070617373636F64652025303664002C
:200CAC00446973706C6179696E6700C053656E64696E6700CDC00000238841F210101B1ACC
:200CCC0000F08F80203B40F069812379002B41D05B1E40F06381002900F060810F9B002B60
:200CEC0000F05C81109B1BB93888064200F0568140F28B40009099A3019360790290A079EC
:200D0C000390E07904900022059211460691C1E0427574746F6E203100C046C042757474CD
:200D2C006F6E203000C046C01B5B33336D72656C65617365641B5B306D00C0461B5B333232
:200D4C006D707265737365641B5B306D00C046C058060020AE480021282207F047FDAC483D
:200D6C00641D2722214607F018F80E9C002C00F015810F9C002C00F01181109C1CB9388839
:200D8C00064200F00B81A24940F28440B4A4BBA2BCA361E753747265616D00C0257320253D
:200DAC007300C046496E6469636174696F6E7320656E61626C6564004E6F74696669636121
:200DCC0074696F6E7320656E61626C656400C0464E6F74692F496E642064697361626C6511
:200DEC006400A1781B9A601D08F0F0F804F1050924790E9B0FF29C2A0FF29C28002C6FD018
:200E0C00641E40F0CB801C1C1CD00F9CD4B1109C14B93888064215D0A04940F21C4090A464
:200E2C0000908AA38CA20194DDF868C00293002412980392119B04912246059431460692E0
:200E4C002A46E047974899F80020C069072109F02BFC0E9C002C00F0A1800F9C002C00F040
:200E6C009D80109C1CB93888064200F0978099F8004004B1C24640F2244070A300906BA4E3
:200E8C0001940293CDF80CA0002204921146059114460694DDF868C0119B129831462A46D8
:200EAC00E0477BE0425554544F4E3000427574746F6E205365727669636500C0425554542C
:200ECC004F4E310043434344204368616E6765206D73673A2025732025733A20257300C002
:200EEC00E3B10F9CD4B1109C14B93888064215D06A4940F20D405AA4009054A349A2019485
:200F0C00DDF868C00293002412980392119B049122460594314606922A46E047614899F8AE
:200F2C000020C069062109F0BFFB0E9C002C35D00F9C002C32D0109C14B9388806422DD050
:200F4C0099F8004004B1C24640F2154031A395E71C9A0020042109F0DBF81FE056616C75C2
:200F6C0065204368616E6765206D73673A204461746120536572766963652053747265614F
:200F8C006D3A20253032783A253032783A253032782E2E2E00C0507A02F008FC58460AF06B
:200FAC0029FE4048C0680BF073FA00283FF4AEAC3C4800690BF06CFA00287FF454AB3948C8
:200FCC0000690BF06DFA044620894BF6552181421AD1207B04F10D08012815D130480BF0BB
:200FEC00A0F910B12E480AF0C3FC98F8011098F800001D9B40EA012003FB00F128480BF0CE
:20100C0092F927480BF048FA20460AF0F3FDCFE77C0600201B5B33316D4C4544301B5B30F3
:20102C006D00C0464C45443000C046C05475726E696E6720257320257300C0461B5B33322E
:20104C006D4C4544311B5B306D00C0464C45442053657276696365004C45443100C046C066
:20106C0056616C7565204368616E6765206D73673A2025732025733A20257300537472695C
:20108C006E6700C044617461205365727669636500C046C06F6666006F6E00C0B8050020C9
:2010AC0058060020200500202DE9F04F0820ADF1C40DADF830000120ADF832000CA809F0FB
:2010CC0057FFA84C9DF8340020700E98A0608F48DFF840A201688E480FF2902800882D91ED
:2010EC002E90D8B150460068014217D08A480068014204D189480068008801420ED0984861
:20110C0005684FF4E1779DA600230097934F0196C64E02933A8830684346A847002504F1B0
:20112C0050062562304629460BF0AEF904F15C07E660294638460BF0A7F904F1740004F1BB
:20114C008001276106F00EFF5146DFF8E4B20968E0612F91F8B958462E9F0168CFB12F9835
:20116C00014216D06C480068014204D16B480068008801420DD07A4840F2D9178FA30668BF
:20118C000097764F0193A94B02953A8818684346B0470BF075F904F1680004F18C0106F0C8
:2011AC00E1FEA06100BB58462E9F0168CFB12F98014216D058480068014204D1574800681D
:2011CC00008801420DD0664840F2DF1784A306680097624F0193954B02953A8818684346D2
:2011EC00B0470BF04DF9A06992490AF0BFFFF8B158462E9F0168CFB12F98014216D0464894
:20120C000068014204D145480068008801420DD0534840F2E5177AA3066800974F4F019388
:20122C00824B02953A8818684346B0470BF028F903A82946242208230BF01EF97F4F4FF4B2
:20124C007A7B32260D20DFF8F0913A68099003AB04F1F000BBFBF2F18AB2724349460BF0CE
:20126C0007F90E203968099003AB04F58A70BBFBF1F189B24E43324649460BF0F9F8396861
:20128C005E462A4603ABBBFBF1F081B206FB01F06B49089004F59C700BF0EAF84FF001094D
:2012AC00AB4640F205308DF8AE900DF1AE02ADF858B0494602F0DAFB40F20630022116AA0B
:2012CC0002F0D4FB621C4FF44270494602F0CEFB04F1A80240F20730112102F0C7FB2E98D0
:2012EC0004F1A806002800F0BE802D992F98014200F0B98008480068014211D1074800685C
:20130C000088014200F0AF800AE0C046ECE2000032E30000400500003C0500004405000035
:20132C002946202204F1CE0007F060FA0B483F4D0B4B0788D5F800A058461D68325C401C9E
:20134C00C0B2335C3118092B18BF082B01D11F2A78DB8018C0B22028F0DB05E08405000000
:20136C0000E300002005002071E0C04670726F6A6563745F7A65726F2E6300C0496E6974E7
:20138C0069616C697A696E67207468652075736572207461736B2C2068617264776172653D
:2013AC002C20424C4520737461636B20616E642073657276696365732E00C0464572726F29
:2013CC007220696E697469616C697A696E6720626F617264204C45442070696E7300C04667
:2013EC004572726F7220696E697469616C697A696E6720627574746F6E2070696E7300C056
:20140C004572726F72207265676973746572696E6720627574746F6E2063616C6C62616355
:20142C006B2066756E6374696F6E00C008E30000E8E20000AD6F0000358E0000DCE200009D
:20144C0057C200009748491C521E06F0A6FC4FF408707EA600902D990196924E3A46434666
:20146C0050460296A8470620A02109F001FB0720A02109F0FDFA0820A02109F0F9FA092091
:20148C00A02109F0F5FA48461E2109F0F1FACDF854B04F468DF8AF9058468DF8B09004213C
:2014AC008DF8B10015AA8DF8B2704FF4816009F0C5FA4FF4806049460DF1AF0209F0BEFA96
:2014CC0040F2024049462CAA09F0B8FA40F2034049460DF1B10209F0B1FA40F2064049461C
:2014EC000DF1B20209F0AAFA032009F013FC042009F010FC6848694A132109F021F86849E3
:20150C00032009F02BF9AA4DAA4A052105F10C0009F016F82E982D990FF2581BC8B12F9825
:20152C00014216D0A6480068014204D1A5480068008801420DD0A4480568DA2705260097EF
:20154C00A24BCDF804B0A24F02961A88386894A3A847267809F0EAFE97490028C8602FD07A
:20156C000AF042F909F0E2FE93490028086127D00AF03AF99048914A0721143008F0E0FFCA
:20158C002E982D99D0B12F98014217D08C480068014204D18B480068008801420ED08A4837
:2015AC0040F20117056800970723CDF804B0874F0293874B3A881868B9A3A8477E48067028
:2015CC00BC4D08200426ADF83C0027782878ADF83E60800010900FA809F0CAFC00280CBFB8
:2015EC0011980020CE49A8460028C8605CD00AF0FBF8CB48CB4A06214C3008F0A1FF2E987F
:20160C00DDF8BCA0DDF8B4900646E0B119EA0A0F19D06B48006819EA000F05D16948006876
:20162C00008819EA000F0ED067480568EE23062200936649CDF804B0654B02920A881868C0
:20164C004946B9A3A847B648077032E04E616D6520696E2061647665727444617461206104
:20166C00727261793A201B5B33336D25731B5B306D00C046526567697374657265642073AB
:20168C006572766963652C202564206174747269627574657300C0462C18002064E20000D4
:2016AC00BFC20000EE0500202E9EDDF8B490DDF8BCA03F4904F138009FA78860D6B119EA07
:2016CC000A0F17D03E49096819EA010F05D13D490968098819EA010F0CD03B49E9230D68A1
:2016EC0000933A4901973A4B02900A88186849462BA3A847304904F140008860DEB119EA93
:20170C000A0F18D02E49096819EA010F05D12D490968098819EA010F0DD02B494FF48973D0
:20172C000D68009329490197294B02900A88186849465BA3A8477A4904F148008860D6B188
:20174C0019EA0A0F17D01E49096819EA010F05D11C490968098819EA010F0CD01A49FF26DB
:20176C000D680096194B0197194902901A8808686DA34946A84708200427ADF8480098F8F2
:20178C000060ADF84A70B000139012A809F0F0FB00280CBF14980020734DE86010B319E00A
:2017AC006C65645F736572766963652E6300C046B01C002014E00000AC1B002090DF0000CB
:2017CC003C0500004405000000E300008405000008E300000AF008F8644A05F11000072146
:2017EC0008F0AEFE04F12C006860002504F1240239466562284608F08BFC5D4E3088022157
:20180C000DF1AA02ADF8AA00012008F081FC0DF15A002822294606F0E9FF0DF18200282274
:20182C0006F1130106F0B9FA01210DF15A02284602F0B0FE01200DF15A02014602F0AAFE02
:20184C00284601210DF15A0201F096FC01200DF15A02014601F090FC284628210DF1820297
:20186C0001F04AF9012014210DF15A0201F044F9284639460DF15A0208F04AFC98F8020033
:20188C0098BB04F1280098F8019098F80360C8F82400182009F0B8FF071C26D00CE0C046E1
:2018AC00627574746F6E5F736572766963652E6300C046C01C14002004212A460AF00EFBF1
:2018CC00484609F000FF38727E72BD7208F14800F86008F158033B6108F120027A6109F035
:2018EC00A3FF244A394608F057FF0C2009F08CFF071C0AD0012104220AF0F7FB3034BC609E
:20190C0009F092FF394609F053FD0120102109F01BFA0220102109F017FA31B0BDE8F08FA7
:20192C006C1A0020BCDF0000646174615F736572766963652E6300C05265676973746572DA
:20194C0065642063616C6C6261636B7320746F206170706C69636174696F6E2E20537472B4
:20196C0075637420257000C0301C002040E00000B4DE0000CBC200002DE9F04F0120ADF1DB
:20198C005C0DADF81A000827ADF8187006A809F0EFFA00263546DE4C8DF854509DF81C0082
:2019AC006070A6700898E0614FF6FF70A082384609F02AFF5FEA00080CD0012112220AF061
:2019CC0094FB09F031FF15A90123DA4A0091414608F000FF9DF854000121207004F1A800F6
:2019EC0009F04AF904F1CC00022109F045F904F1F000042109F040F9042031461022E0702B
:201A0C0004F1480006F0F2FE04F158003146102206F0ECFE2562267266720720E67204F156
:201A2C0048021021A072022009F040F904F158020320102109F03AF9042004F12002014668
:201A4C0009F034F919E0A078B4F84050B4F84230B4F84420B4F8461006280ED1ADF8425093
:201A6C00ADF84430ADF84620CB48ADF848100AF052FC012010A906F0FBFD0A20ADF80A003D
:201A8C00ADF808704FF0FF35039502A809F070FA002840F0E18130460C90ADF824700925D2
:201AAC00ADF8265009A809F063FADDF82C900028CDF8309040F0D081BDF82800102840F0F4
:201ACC00BF8160789DF82A10884240F0B9814D4628884FF6FF71814200F0AA812B78A23B89
:201AEC0000F08F812E3B40F0AB81A878B046002800F05C81801E00F03481401E012840F20E
:201B0C000981801E00F0B980401E7FD0401E60D0083800F06781801E40F0698194F83E3063
:201B2C00A888052BADF834004BD001208DF83E0099480AF0F0FB94F83E00012820D004288C
:201B4C001ED003280DD002280BD00C98C188ADF836100189ADF838104189ADF83A1080896D
:201B6C002BE0B4F84000B4F84250ADF83600B4F84430ADF83850B4F84600ADF83A301CE0FF
:201B8C00B4F84000E9888842D8BF081CADF836002989B4F842008842D8BF081CADF838007A
:201BAC006989B4F844008842D8BF081CADF83A00B4F84610A889814200DC0146ADF83C10C9
:201BCC0001E08DF83E60B14A0DA8122109F023F90DE1AF480AF09FFB6878002840F00781C4
:201BEC00E888E08228892083688960836A480AF0D3F9002840F0FB80A56A002D00F0F780F1
:201C0C002B68E08A218B628B9847F0E0B5F804A00A2009F0F9FD5FEA00080AD00121152285
:201C2C000AF063FAA8F808A009F0FEFD414609F0BFFBB9483146062206F0D8FDE68226834F
:201C4C006683A879607354480AF065FB90480AF062FB4FF001084FF6FF706379A0824BB978
:201C6C00A879082814BF04200520A07040460AF075F8BCE00320A070B9E06878002840D16D
:201C8C00A549281D02680A60808888800623A3706889A082E889E082288A2083688A6083D5
:201CAC00E878207394F83E00012818BF022808D11F2008F027FC4FF47A714143364808F0D6
:201CCC00FBFD95F803B0B5F80AA0142009F09CFD5FEA000800F08E80012114220AF005FA03
:201CEC0088F808B02D1DC8F80C50A8F810A0042088F8120009F098FD804A414608F04CFD14
:201D0C0078E0687831286BD12671042023E0C0461C1400206878002862D1A878618AA27876
:201D2C00032813D02079657931B9012814BF6671267107E0E9C00000054303D0724808F061
:201D4C00BBFDA278072AE0D1062004E0062A06D0207910B90320A0704CE00220FBE70720C7
:201D6C00F9E7687800283BD1EB78A078E179ABB9022818D0072816D0062802D161790129FE
:201D8C0011D103280FD060480AF006F958B9012009F0E4FF07E0C046E81400205F4A404664
:201DAC0007F0C4FE68706878D0B920E06878B8B9564A0220102108F093FF554A032010215C
:201DCC0008F08EFF5648ED1C29680160AB888380544A01252846A179A57007F0A7FE48B1AD
:201DEC00A77007E0A888464A102108F0FBFFB8F1010F25D1606A18B3016809B3A0788847A6
:201E0C001EE0687913281BD12889012808D1A07B022805D11E480AF07EFA08F07DF80FE0AE
:201E2C00052008F06FFB0146194808F045FD07E06888C00B04D3374A0420014608F050FF81
:201E4C000C9848B1ADF810700320ADF81200CDF8149004A809F08CF8208A657921794208DC
:201E6C0031D320F0010055EA010320822BD08DB92D49207A8DF84A00657A8DF84B500A68CB
:201E8C0013AB1A608988998007E0C046C5C200000C15002003208DF84A00A07AE57A194A51
:201EAC008DF8520006218DF853500DF14A0008F0DFF9616A30B1A77021B1086810B10968A1
:201ECC0038468847208A810807D3184920F002002082304606F0CCFB208AC108FFF4CDAD74
:201EEC0020F00400A57B2082681E3FF4ACAD401E7FF4C3AD08F010F8BFE5C046BFC0000084
:201F0C00E9C20000DDC20000C414002064140020741400203C14002054140020A314002064
:201F2C0048140020841400204E1400205A1400202DE9F84F8046DD480122A0F130010A60BA
:201F4C00D7490F68002FFCD0D74ED64AC02706F1040B1760DBF80010890804D23168090C42
:201F6C0041F0F00100E07221E34AE44D4FF0000982F85412A5F1D407C0F80090D6F808A00B
:201F8C003868C0F304600AF071F85246534600EB2270401C162805DA10F10A0FB8BF6FF004
:201FAC00090000E01520E649E64F00F01F0040F4F8500880386880083ABFE348C0F80090EC
:201FCC0042F04062E149A5F13C04D00E970E80F0010000F00100086087F0010000F001006B
:201FEC0088602068C0F38367C0F38F215FEA9A4022D243F3072000280BD542424846490886
:20200C0005D17F0806BF0127391C4FF6FF71521EF5D1002810DD4FF6FF72490041F00101E3
:20202C008A4207D27F0047F001070F2F92BF01210F27111C401EF0D141EA0741182008F05B
:20204C0099FD20682768C34CC0F3870140F2FF324B4607F0030041EA0021274688B22C214F
:20206C000090A7F1400007F09FFFA5F110073868C0F30D011C2008F07DFDB54957F8080C3A
:20208C00014000F07C400143142008F073FD57F80C1C01F47C000904090C0143102008F0F1
:2020AC0069FD57F8042CDBF80010C2F30350C2F30343490812D231680E0510EB267003D400
:2020CC001028A8BF0F2000E04846090413EB217303D4102BA8BF0F2300E04B4643EA0013BD
:2020EC0002F47F4002F0FF01B8F1220F40EA034041EA000124BF02F0804211430C2008F0AB
:20210C0039FDB8F1220F32BF01202868C0F30070B8F1220F4FEA400040F0200084F80901B5
:20212C0026BF2868C0F3407001208B4EB8F1200F40F0100084F8090138BF494606D331682B
:20214C00C80C00F44070C1F384510143282008F011FDB8F1200F26BF3068C0F301504846F9
:20216C00B8F1220F4FEA400040F0600084F80C0126BF2868C0F3C0604846B8F1220F4FEAFE
:20218C00C00040F0800084F8010126BF2868C0F345504846B8F1200F4FEA800040F47C4079
:2021AC00A4F89C0138BF6D490AD3306801038A15920501F47C1100F00F00114341EA00314D
:2021CC00082008F0D7FC2E464FF480002060A6F1D000816D40F20F226FF31F418A4213D917
:2021EC0001680068C1F30367C0F3034007B17F1E072805D006280EBF0720801C00F00F00D8
:20220C003D4947EA00100870CAF381477F1E02D07F1E28D023E03168880C20D24FF48040C5
:20222C0020604F48D0F802204B0AC1F3033703F0800322F08F02134347EA0302C0F80220CF
:20224C00D0F801300F0A67F30303C0F80130026801F0E70722F0E70247EA020102E04FF07E
:20226C00004120460160DBF80000C0F3C0070FB94020A0624FF400703E4F206428684FF040
:20228C004008C0F3C14040F0300084F8C800CAF38150A8B3401E0BD0401E28D0022127E0F0
:2022AC009402224300600C40AC3F005040100940012009F0C9FB05460420294607F022FDC5
:2022CC00042009F0C1FB8542FAD12648056825F07F4008F095FE3846143000680368072190
:2022EC004FF06022280E98474FF4806020600321042007F007FD0AE0026008408C13005093
:20230C000420012107F0FEFC174808F079FE203E30681649164B47F6180500F03F0084F8F1
:20232C00CB0F3A460D8018681068C168022088471248114EC0F8008001213160BDE8F88FC8
:20234C006E6208400000094094042A4300002043FCFCFC0040A00C409813005000803F408E
:20236C000A600840A83F0050BD37860070B00C402C200940A00100109404604200600C4056
:20238C002DE9F04F09AFADF13C0D1C460025DFF8F891DFF8F881DFF8F8A1DFF8F8B108907E
:2023AC0038790A923F880B90FF200D9008780991022809D10846494640680E88008842F6AD
:2023CC000213834200F0E880099807F059F9064649469BA2002E0B880C96994640D0761ED7
:2023EC001FD0A8480168D3B1A7480068014216D0A6480068014204D140460068008801425E
:20240C000DD0A54840F22927A9A604680097A14B01969F4F02951A883868A1A3A0470A2073
:20242C000BE150465E46B9F1000F4FF0140A0168079606F1040B3FD09348006801423BD0A8
:20244C0092480068014204D1404600680088014232D092484FF40973066800939BA31DE086
:20246C0050465E46B9F1000F4FF0280A0168079606F1020B20D08448006801421CD08348C4
:20248C000068014204D1404600680088014213D0824840F21623066800938EA30192029385
:2024AC0008980390049405970B987A4B06901A88774B18687AA3B047BA4530DD3E19B24559
:2024CC0021DA70480168B9F1000F1AD06E480068014216D06D480068014204D140460068C7
:2024EC00008801420DD06C484FF40D73066800937AA20192674B0295654D1A88286868A3C9
:20250C00B0470D252CE009980A99C0682246C01905F043FCABF800600C980D9020E05948B4
:20252C000168B9F1000F1AD057480068014216D056480068014204D140460068008801427C
:20254C000DD0554840F22F23066800936CA20192504B02954E4D1A88286851A3B0470725B9
:20256C000D98FF280DD00798806850B1066846B1E419A0B200900C9A0A9B089841F230117B
:20258C00B047284659E0C04632E3000044050000ECE200006C1A002050460068002E8146C6
:2025AC002ED03948006819EA000F29D03748006819EA000F05D140460068008819EA000FC6
:2025CC001ED00B98FE280CBF0FF258180FF27018099807F055F8314940F2FB130E680093CB
:2025EC005AA20192029008980390CDF8108029490595274B06950A881868494628A3B047AA
:20260C0000970320019009990A9A0898234606F045FD06465846083007686EB967B178682C
:20262C0050B1099807F02CF8009402460A9B7C68089841F23011A047F0B20FB0BDE8F08FEC
:20264C005772697465417474724342203A20257320636F6E6E48616E646C6528256429201D
:20266C006C656E28256429206F666673657428256429206D6574686F642830782530327844
:20268C002900C046E8E20000400500003C05000008E300008405000000E3000004E3000071
:2026AC00646174615F736572766963652E6300C041747472696275746520776173206E6FB7
:2026CC007420666F756E642E00C046C053747265616D00C0537472696E6700C0496E766159
:2026EC006C69642076616C7565206C656E677468207761732072656365697665642E00C0F6
:20270C00416E20696E76616C6964206F666673657420776173207265717565737465642EC5
:20272C0000C046C02D20726573746F72696E6720626F6E64656420737461746500C046C00A
:20274C002D204F5441207772697465005772697465417474724342202843434344293A20EE
:20276C00706172616D3A20256420636F6E6E48616E646C653A202564202573002DE9FE4F41
:20278C00B84C0F460646F80B80F04781B80880F0D480B54DDFF8D892DFF8E0B2DFF8E882DC
:2027AC00DFF8F4A22C68B80F67D2B0480678002E47D1380947D3AF480126494606700024AE
:2027CC000C70204604F025F8AB48FDF78DFCAC492246584609F094FDAA48017801291CD183
:2027EC0041460B78CBB9A94E306880B109F03AFB2B68A8493668A64D0A68C01A000B82184B
:20280C002860B2EBC61F28BF0C6007D20A60A4484FF0005109F0E2FA2CE00670504640F66D
:20282C0009010180417B01F0F00141F0010141734480017B01F0F00101734460974E3060CD
:20284C0018E0390914D2B80BC0F004819D48001D09F05FFD061C08D0706830B17468F06816
:20286C00B6F91C1098A20CCAA04727F40057F1E00021017027F00807ECE0ECB1042009F0F9
:20288C00E3F8C8B109F0EEFA864A29681060814226BF401A401E401A000BF060F06800F5C4
:2028AC008D70F060F16840F6C410884203D340F2EE228A4200D9F0600024D6F818C02C602F
:2028CC00BCF1000F10D050460D30007810F00F0F0AD1708C40F60901814205D17CA20CCA43
:2028EC0030466FF48071E0476F495846224609F007FD4546287850B10220ADF8000068467F
:20290C0008F02EFE2C70BDF808006849088049460120674A674B087010781C70401C10707A
:20292C00192009F041FB756925B16BA20CCA30462146A84727F000578CE004F10C0A50463F
:20294C0009F0E7FC061C5FD008F041F87368B2690025B561E3B1F37F42F002024FF0000958
:20296C00904603F007035B1E07D05B1E03D09B1E06D15BA002E05CA000E05DA090E800031B
:20298C007268F068B6F91C104B4694464246E04709F06AFD8046B4F91200401C6FF31F3012
:2029AC006082E0681F30017801F07F010170504609F098F9404609F053FDF068B0F99410A3
:2029CC00B4F9122091421FD13B49097801291BD090F896409CB904688CB138490968096870
:2029EC00B1F1FF3F10D0364909687030B4FBF1F109F032FDF068703009F04EFD04E080F82A
:202A0C009650284606F07EFB504609F082FC27F0020708B147F002071CE009F025FD014663
:202A2C002046083009F075FC0646B469084609F017FDA0080CD25EB17068B169A143B16141
:202A4C0030B17568F068B6F91C1000232246A84727F480471FB11248394609F0BFF9BDE81E
:202A6C00FE8FC046582F0020A02F0020C32F0020BF2F0020BD2F0020B58A00000C2F00205B
:202A8C0041B70000C12F0020BC2F00209C2F0020A82F0020982F00206C2F0020001004403F
:202AAC00E82D0020A42F0020E9640000B02E0020C52F0020BE2F002016200020AC2F002025
:202ACC00DCE20000582F00200000000020000000000000000000000200000000000000045F
:202AEC000000000000000010000000000000004000000000000000202DE9F04F05467F48F3
:202B0C007F4CADF13C0D0FF2442C0F46DFF8F4A1DFF8F491DFF8F4810088DFF8F4E1079052
:202B2C002E1C0890E068099245D0761E21D0BD48079F0168002F00F0DD80BB4800680142EC
:202B4C0000F0D880B9480068014205D1504600680088014200F0CE80B5484FF49A7771A630
:202B6C0004680097434601964F4602951A88386876E0089E8346231D04F1100270461421C1
:202B8C000B93002E0A9205680C914FF001030D933FD0A548006805423BD0A4480068054283
:202BAC0004D1504600680088054232D04FF498736DA200211CE0089EA31C704604F12402B5
:202BCC0000210B9305680A920D9128230C9306B39548006805421CD094480068054204D108
:202BEC00504600680088054213D040F2251360A2904806680093CDF804C002920397049188
:202C0C0005914346069149461A88086841A32946B0470C98B84226DA8248089E0168002E62
:202C2C0068D081480068014264D080480068014204D150460068008801425BD07D4840F275
:202C4C004D16046800964CA501950297002303930C9A0492464605934D4606933288286854
:202C6C002CA3A04746E00A9809993A4605F095F80D9E0B98002E07803CD0079829460028E1
:202C8C002BD069480068014227D068480068014204D150460068008801421ED0654B4046BD
:202CAC004E4602889BF802701D683068002F19A308BF3FA703D0012F0CBF44A749A74FF444
:202CCC00A27600964CA60196BBF80060029603970027049705970697A84706200090564F27
:202CEC000A99207804F14C03002201905846029704F068FE0FB0BDE8F08FC04632E3000007
:202D0C006C1A00204405000008E3000084050000ECE20000646174615F736572766963658C
:202D2C002E6300C0536574506172616D657465723A20506172616D65746572202325642082
:202D4C006E6F742076616C69642E00C0536574506172616D65746572203A202573206C6528
:202D6C006E3A20256400C04653747265616D00C0537472696E6700C04C656E677468206F9C
:202D8C0075747369646520626F756E64733A204C656E3A202564204D696E4C656E3A2025B0
:202DAC0064204D61784C656E3A2025642E00C0461B5B33336D4E6F74692F696E64206469ED
:202DCC007361626C65641B5B306D00C04E6F74696669636174696F6E20656E61626C6564D7
:202DEC0000C046C0496E6469636174696F6E20656E61626C656400C0547279696E67207443
:202E0C006F2073656E64206E6F74692F696E643A20636F6E6E48616E646C652025782C20CC
:202E2C00257300C0E8E20000400500003C05000000E3000004E30000013F00002DE9F04F7F
:202E4C0009AFADF13C0D08900A92388809911E46ADF81800101C08BF002000F084810027E9
:202E6C0000F101094FF0FF3A4FF0010BB8466CE1252940F063811078521C0A922D2818BF1D
:202E8C00ADF8068005D15846551CADF8060010780A9530281CBF4246434605D10A99087807
:202EAC005A465B46491C0A912A28CDF80080554616D1306804930A99CDF808A0C01C4B1C2A
:202ECC0020F00300001D306050F8044C0A93002C0878009418D5ADF806B06442009413E03C
:202EEC0044460AE0610001EBC4010918A1F130040A9908780094491C0A91302801DB3A280C
:202F0C00F0DBCDF808A004932E282BD10A9908782A2801F101010A9111D13068CDF80880B9
:202F2C00C01C20F00300001D306050F8045C002D48BF454608782B46491C0A9111E0454615
:202F4C0043460AE0690001EBC5010918A1F130050A9908782B46491C0A91302801DB3A28C5
:202F6C00F0DB02930AB1224604926C2804D04C2818BFADF8048005D10A990878ADF804B0FE
:202F8C00491C0A910BA9CDF80C800FAB07916428059300F08B80692800F08880BDF818C099
:202FAC00752872D078286ED06F286AD0702850D063283DD073281ED009980A990128A1F19F
:202FCC0001010A9115D96B490C68B5F1FF3F03D0A84288BF6D1C00D8099D029508A80AA949
:202FEC0032466B46A0473F180A99039801F1010974E040462AE030680A99C01C20F0030016
:20300C00001D306050F8040CBCF1000F01F10109014608B955A00146079108F055FF03902C
:20302C00B5F1FF3F5BD0A842C4BF281C039056E03068C01C20F00300001D306010F8040CAF
:20304C005D468DF82C000A990395584601F1010945E0082035680490E81C20F00300001D89
:20306C00306050F8041C082210230FA805F002FE401E0790402101700A99079801F101093E
:20308C0029E0082302E0102300E00A230A99306801F10109C01C20F00300001D306050F8B3
:2030AC00041CAA42BCBF2A1C049210E00A99306801F10109C01C20F00300001D306050F896
:2030CC00041CAA42BCBF2A1C04926FF009030FA805F0D0FD0790059D281A0390009C241AB5
:2030EC00BDF8065000945DB906E008A8202109AA08F00CFA009C7F1C641E0094F5D50398D5
:20310C000546401E039075B9BDF80600E8B10098401E009019D408A8202109AA08F0F6F9E7
:20312C0000987F1CF4E70798411C0791017809AA08A808F0EBF903987F1CE1E708A809AAC8
:20314C0008F0E4F97F1C09F101094A460A9812F8011C401C00290A907FF48AAE089808B173
:20316C004146017038460FB0BDE8F08F286E756C6C2900C014E300002DE9F04F0546BE4C7D
:20318C00BC48DFF800B3DFF800A3DFF80093DFF80083DFF804E30F46ADF1340D0FF2FC1C4C
:2031AC002E1C0892E1680288206907923CD0761E20D0B2480168171C00F0CF80B048006865
:2031CC00014200F0CA8058460068014205D1504600680088014200F0C080AE484FF4A577F9
:2031EC0064A604680097434601964F4602951A883868B0E00B90A61D7046A31C002A0A96FB
:20320C00056809933AD09E480068054236D058460068054204D150460068008805422DD008
:20322C004FF4A37364A217E0261D7046631C0B910A96056809930AB39148006805421DD03D
:20324C0058460068054204D1504600680088054214D040F23B135AA2904806680093CDF875
:20326C0004C0029203970021049105914346069149461A8808683AA32946B047022F46DAAF
:20328C00002F44D0099808993A4604F086FD079E0A982946002E07802BD0794800680142D4
:2032AC0027D058460068014204D150460068008801421ED040460B9E0288784B4846B778FD
:2032CC001D680068002F26A308BF3FA703D0012F0CBF44A749A74FF4AD7600964CA6019622
:2032EC000B9E3688029603970027049705970697A8470720009020780190694F02970B986B
:20330C00099904F11403002204F05CFB25E05C4D5A4C07982A682168061C1ED011421CD029
:20332C0058460068014204D1504600680088014213D05A4840F26316046800963FA50195EE
:20334C0002970123039300220493464605924D4606923288286802A3A0470DB0BDE8F08F50
:20336C00627574746F6E5F736572766963652E6300C046C0536574506172616D6574657231
:20338C003A20506172616D6574657220232564206E6F742076616C69642E00C0536574504F
:2033AC006172616D65746572203A202573206C656E3A20256400C046425554544F4E310049
:2033CC00425554544F4E30001B5B33336D4E6F74692F696E642064697361626C65641B5BBA
:2033EC00306D00C04E6F74696669636174696F6E20656E61626C656400C046C0496E646948
:20340C00636174696F6E20656E61626C656400C0547279696E6720746F2073656E64206E9F
:20342C006F74692F696E643A20636F6E6E48616E646C652025782C20257300C04C656E678F
:20344C007468206F75747369646520626F756E64733A204C656E3A202564204D696E4C656B
:20346C006E3A202564204D61784C656E3A2025642E00C04632E30000AC1B0020E8E20000AD
:20348C00400500003C0500004405000008E300008405000000E30000ECE2000004E3000045
:2034AC00C13C00002DE9F04F09AFADF13C0D08900B9397F804B00A923F880991084606F055
:2034CC000BF9AF49DFF8C0A2DFF8C092DFF8C082B54B0E8800240546FF2082A2002D0D9057
:2034EC00AF49B0480C953BD06D1E1FD0A5480168D6B150460068014216D04846006801426D
:20350C0004D140460068008801420DD0A34840F2ED176DA6056800979F4B01969D4F0294F9
:20352C001A88386864A3A8470A20C1E0051D002E079009680E953AD050460068014236D030
:20354C0048460068014204D140460068008801422DD018464FF4F4730568009372A317E087
:20356C00851C079009680E950EB35046006801421DD048460068014204D140460068008880
:20358C00014214D018464FF4ED730568009368A301920293089803900B9A049205977E4BF1
:2035AC00CDF818B01A887B4B186843A3A847002F4CD10B9860A23D18022D28DACDB9BBF10C
:2035CC00180F18BFBBF1120F13D150466D4900680968002E38D0014236D048460068014253
:2035EC0004D140460068008801422DD040F201261FE009980A990B9AC068C01904F0CDFB36
:20360C00002D42D00C980D900E9E35803DE05D480168CEB150460068014215D048460068F7
:20362C00014204D140460068008801420CD04FF4FC765A4805680096574B0192554E029409
:20364C001A8830681CA3A8470D241EE04D480168D6B150460068014216D048460068014262
:20366C0004D140460068008801420DD04B4840F2F3163AA305680096474E0193454B0294D6
:20368C00328818680CA3A84707240D98FF280ED00798806858B106684EB10B980C9A0A9B86
:2036AC00C01980B20090089841F21011B04720460FB0BDE8F08FC0466C65645F73657276D5
:2036CC006963652E6300C04641747472696275746520776173206E6F7420666F756E642E1C
:2036EC0000C046C05772697465417474724342203A20257320636F6E6E48616E646C652879
:20370C00256429206C656E28256429206F666673657428256429206D6574686F64283078C0
:20372C00253032782900C0464C45443100C046C04C45443000C046C0496E76616C696420D1
:20374C0076616C7565206C656E677468207761732072656365697665642E00C0416E2069A6
:20376C006E76616C6964206F666673657420776173207265717565737465642E00C046C0C7
:20378C0032E30000E8E20000400500003C0500004405000008E300008405000000E3000018
:2037AC00ECE20000B01C002004E300002DE9F04FA549A64EA64DA74CDFF89CB2DFF89CA205
:2037CC00DFF89C92DFF89C820F88401EADF1240D00F09080401E75D0801E61D0401E4DD032
:2037EC00401E2ED0401E17D0401E40F0C9803168002F00F0C5802868014200F0C1802068BC
:20380C00014205D15A4610680088014200F0B8804FF4727060A766E03168002F00F0B0801E
:20382C002868014200F0AC802068014205D15A4610680088014200F0A3804FF46F7058A7D5
:20384C0051E040F2153004A902F09EFC04A806F0BDF93168002F00F093802A68114200F083
:20386C008F802268114205D15A4612681288114200F0868040F2B73750A676E03168002F49
:20388C007ED0286801427BD02068014204D15A4610680088014273D04FF4717051A722E0CC
:2038AC003168002F6CD02868014269D02068014204D15A4610680088014261D04FF4707015
:2038CC004EA710E03168002F5AD02868014257D02068014204D15A461068008801424FD069
:2038EC0040F2AD304AA74246146800900197002602963FE04FF4417006A902F045FC9DF848
:20390C0019308DF8113000218DF814109DF81A208DF813109DF818008DF812209DF81D3005
:20392C008DF810009DF81C208DF8173004A98DF816209DF81B304C4A8DF8153008681060C1
:20394C004B68536006A806F041F93168C7B12A68114215D02268114204D15A4612681288D6
:20396C0011420DD04FF46A772CA64246146800970196029053464D4618682A8802A3A04767
:20398C0009B0BDE8F08FC04670726F6A6563745F7A65726F2E6300C04572726F7200C046C1
:2039AC00436F6E6E656374656420616E64206164766572746973696E6700C046436F6E6EC1
:2039CC0065637465642E205065657220616464726573733A201B5B33326D25731B5B306DA9
:2039EC0000C046C0436F6E6E656374696F6E2074696D6564206F757400C046C044697363F1
:203A0C006F6E6E6563746564202F2049646C65004164766572746973696E670047415020E5
:203A2C00697320737461727465642E204F757220616464726573733A201B5B33326D2573C3
:203A4C001B5B306D00C046C032E30000ECE20000400500003C0500004405000008E30000E4
:203A6C008405000000E3000097170020F8B5A0F2013517460E46022D40F214818A4A8B493C
:203A8C008B4B2D1F0F2D04D9143D4AD0AD1E1CD011E0DFE815F0C300BC00F400E400B300F6
:203AAC00AB000701A2009A00100010009200880079006F006300282880F2F480022E40F0F0
:203ACC00F180398806F0D4FFF8BD012E40F0EA8015462879012800F0E580517938785071AC
:203AEC0081B9002800F0DE809078012800F0A980042800F0A680062800F0A380052800F020
:203B0C00A080F8BD3878002840F0CC809078032800F0A280072800F09F80052800F09C80B4
:203B2C00F8BD012E40F0BE803878012840F0BA80154605F1F00008F02FFA002840F0B280F8
:203B4C002C46002004F13E0104F092FD002840F0A98004F1CC0008F0DEFBF8BD022E40F0E8
:203B6C00A18038880A28C0F29D80B0F5486F00F3998015E0022E40F095803888B0F5FA7FA7
:203B8C0080F290800880F8BD022E40F08B8038880628C0F28780B0F5486F00F38380194697
:203BAC00891C0D4638E0022E7CD13888062879DBB0F5486F76DC1946F3E7012E72D1387821
:203BCC0006286FDA891F0D460EE0012E6AD13878042867DA15460B3506E0012E62D138785F
:203BEC0008285FDA15460A352870F8BD012E59D13878042856DA1546093506E0012E51D134
:203C0C00387804284EDC154608352946DBE7022E48D13888154612352946B3E7012E41D1D4
:203C2C001546687901283DD011793878107161B9002837D09078012803D0042818BF0528CE
:203C4C0030D1012008F08AF8F8BD387850BB9078022818BF052825D108F076F9F8BD1546A9
:203C6C0005F1870400211F22204604F0BFFD39463246204604F091F80020EE710EE015469D
:203C8C0005F1680400211F22204604F0AFFD39463246204604F081F80120AE713146224665
:203CAC0005F044FFF8BDC0461C140020601400205C1400202DE9F04F804609AF0846ADF1D2
:203CCC00340D0A9397F808B00992B98808903F880B9105F0A9FC06467C497B48DFF8F49112
:203CEC00DFF8F4A1814ADFF808C200240FF2681E002E0588C8888988079538D0761E1FD0F2
:203D0C0073480168D5B148460068014216D050460068014204D171480068008801420DD0EF
:203D2C0071484FF4EA7745A6056800976D4B01966B4F02941A8838683BA3A8470A206FE004
:203D4C0005461046079E0168002E37D048460068014233D050460068014204D15F48006812
:203D6C00008801422AD040F2CF134AA214E00D461046079E01680EB34846006801421DD0E0
:203D8C0050460068014204D1544800680088014214D04FF4E27341A2604606680093CDF867
:203DAC0004E00292CDF80C800497CDF814B04D4B06941A884A4B18681BA3B047BD420EDB84
:203DCC000B98E91B8142D4BF8AB2021C0A9802800898C1680998C91903F0DFFF1FE03C48BC
:203DEC00079F0168D7B148460068014216D050460068014204D139480068008801420DD05A
:203E0C0039484FF4ED7727A605680097354B0196334F02941A88386803A3A8470724204606
:203E2C000DB0BDE8F08FC046627574746F6E5F736572766963652E6300C046C041747472B1
:203E4C00696275746520776173206E6F7420666F756E642E00C046C052656164417474721A
:203E6C004342203A20257320636F6E6E48616E646C653A202564206F66667365743A20257C
:203E8C0064206D6574686F643A2030782530327800C046C0425554544F4E310042555454FE
:203EAC004F4E3000416E20696E76616C6964206F66667365742077617320726571756573AC
:203ECC007465642E00C046C032E30000AC1B0020E8E20000400500003C0500004405000010
:203EEC0008E300008405000000E30000ECE2000004E300002DE9F04F804609AF0846ADF1EB
:203F0C00340D0A9397F808B00992B98808903F880B9105F0B5FB06467A498448DFF8EC91C5
:203F2C00DFF8ECA17F4ADFF800C200240FF2641E002E058888884988079538D0761E1FD045
:203F4C0071480168D5B148460068014216D050460068014204D16F480068008801420DD0B1
:203F6C006F484FF4E57744A6056800976B4B0196694F02941A8838683BA3A8470A206FE0CE
:203F8C0005461046079E0168002E37D048460068014233D050460068014204D15D480068D2
:203FAC00008801422AD040F2C51349A214E00D461046079E01680EB34846006801421DD0A9
:203FCC0050460068014204D1524800680088014214D04FF4DD7340A2604606680093CDF82D
:203FEC0004E00292CDF80C800497CDF814B04B4B06941A88484B18681BA3B047BD420EDB46
:20400C000B98E91B8142D4BF8AB2021C0A9802800898C1680998C91903F0BFFE1FE03A489C
:20402C00079F0168D7B148460068014216D050460068014204D137480068008801420DD019
:20404C0037484FF4E87726A605680097334B0196314F02941A88386803A3A84707242046D0
:20406C000DB0BDE8F08FC046646174615F736572766963652E6300C04174747269627574C3
:20408C006520776173206E6F7420666F756E642E00C046C052656164417474724342203AAD
:2040AC0020257320636F6E6E48616E646C653A202564206F66667365743A202564206D65C3
:2040CC0074686F643A2030782530327800C046C053747265616D00C0537472696E6700C0FB
:2040EC00416E20696E76616C6964206F666673657420776173207265717565737465642ECC
:20410C0000C046C06C1A0020E8E20000400500003C0500004405000008E30000840500001A
:20412C0000E30000ECE2000004E3000032E300002DE9F04F804609AF0846ADF1340D0A9329
:20414C0097F808B00992B98808903F880B9105F0C3FA06467B497A48DFF8F091DFF8F0A1F1
:20416C00804ADFF804C200240FF2641E002E058888884988079538D0761E1FD0724801683F
:20418C00D5B148460068014216D050460068014204D170480068008801420DD0704840F2A6
:2041AC00A11744A6056800976C4B01966A4F02941A8838683BA3A8470A206FE00546104687
:2041CC00079E0168002E37D048460068014233D050460068014204D15E4800680088014265
:2041EC002AD04FF4CE7349A214E00D461046079E01680EB34846006801421DD050460068BA
:20420C00014204D1534800680088014214D040F2911340A2604606680093CDF804E002922C
:20422C00CDF80C800497CDF814B04C4B06941A88494B18681BA3B047BD420EDB0B98E91BD2
:20424C008142D4BF8AB2021C0A9802800898C1680998C91903F0A1FD1FE03B48079F016810
:20426C00D7B148460068014216D050460068014204D138480068008801420DD0384840F233
:20428C00A71726A605680097344B0196324F02941A88386803A3A847072420460DB0BDE88D
:2042AC00F08FC0466C65645F736572766963652E6300C046417474726962757465207761A5
:2042CC0073206E6F7420666F756E642E00C046C052656164417474724342203A20257320F0
:2042EC00636F6E6E48616E646C653A202564206F66667365743A202564206D6574686F64AA
:20430C003A2030782530327800C046C04C45443100C046C04C45443000C046C0416E2069FB
:20432C006E76616C6964206F666673657420776173207265717565737465642E00C046C0FB
:20434C0032E30000B01C0020E8E20000400500003C0500004405000008E300008405000043
:20436C0000E30000ECE2000004E300002DE9F04F0128ADF1140D40F0F280DFF81492D9F86C
:20438C00DC00012840F0E9800220C9F8DC0008F05FF80290012005F0DFFE20B101210646A1
:2043AC00C9F8DC10D5E008F04FF803906E484FF00008C0F80080012007F046FB012818BF2F
:2043CC00CDF8008004D1404605F08CFA0120009066486E4CC0F800801934D4F8FF0F11200D
:2043EC0007F0D0FE00280CBF46460126102007F0C9FE08B146F002060F2007F0C3FE08B1C1
:20440C0046F004060B2007F0BDFE30B1584800685849006B0246088890470A2007F0B2FEFE
:20442C000028404618BF01204FF0805B0BF5DC7528B128685049006B0246088890474F48AC
:20444C000127076028688069014646F0200088474B48076007F090FE00F001010191400891
:20446C0015D2484807F009FE8246BAF1040FF8D0BAF1010F06D1DBF8D801406802464148B6
:20448C00032190474049086820F003000860404600F08EF92868D4F8FF1F806B80470198DF
:2044AC0001280ED0BAF1010F06D1DBF8D801406802463448394690473349086840F00300CA
:2044CC0008602A480760286840690146304688470B2007F057FE28B128682649C06A024609
:2044EC00088890470A2007F04DFE28B128682249C06A024608889047204807600322C9F87B
:20450C00DC201F4BC3F800802868406B0146304688470128F8D1042005F01EFE124807603F
:20452C001A48D4F8FF1F01688909FCD30098012802D1384605F0D6F907F012FE082005F05F
:20454C000BFE06460398C9F8DC7007F079FF04F057FF029807F070FF02E0042600E0012686
:20456C00304605B0BDE8F08F0C40094000022243B8010010C2DD0000BEDD00002820086031
:20458C00800104430040034024220840141009405C1900202DE9F04F05460F467948DFF8A7
:2045AC00F0B1DFF8F0A1DFF8F091DFF8F0817D49ADF1240D0FF2681C2E1C089202887B48FB
:2045CC00079238D0761E1FD06F480168171C00F087806E480068014200F082805846006808
:2045EC00014204D1504600680088014278D06C484FF48C7740A604680097434601964F46EE
:20460C0002951A88386862E00968041D002AA4F1030635D05D480068014231D058460068BD
:20462C00014204D1504600680088014228D04FF48A7342A213E00968841C064602B35348D1
:20464C00006801421CD058460068014204D1504600680088014213D04FF4867339A252483C
:20466C0005680093CDF804C002920397002304930593069343461A884B4618681AA3A847A4
:20468C00022F00DA37BB414D3F4C07982A682168061C25D0114223D058460068014204D1C3
:2046AC0050460068008801421AD03F484FF492760468009625A50195029701230393002292
:2046CC000493464605924D4606923288286806A3A04705E0089930463A4603F05EFB2780A0
:2046EC0009B0BDE8F08FC0466C65645F736572766963652E6300C046536574506172616D92
:20470C00657465723A20506172616D6574657220232564206E6F742076616C69642E00C087
:20472C00536574506172616D65746572203A202573206C656E3A20256400C0464C45443140
:20474C0000C046C04C45443000C046C04C656E677468206F75747369646520626F756E6405
:20476C00733A204C656E3A202564204D696E4C656E3A202564204D61784C656E3A202564D0
:20478C002E00C04632E30000E8E20000400500003C0500004405000008E3000084050000B7
:2047AC0000E30000ECE2000004E30000B01C00202DE9F84FDFF8E8B10746ABF13500DFF8A7
:2047CC00D4910068800880F0D68006F0B5FE064677480830D0F8008000254FEA28725FEA3D
:2047EC00985002F101020AD2C6F13E0016F10A0F4FEAE000D8BF08208242B8BF021C624CFF
:20480C00D4F87C01C0F3046007F030FC03462068C0F3044007F02AFC9A188246162A05DA8B
:20482C0012F10A0FB8BF6FF0090200E01522574B574802F01F0141F4F8511980006810F086
:20484C00030F18BF0125C00828BF45F002050FB145F00405494691F90700301A052804DADF
:20486C008879A84208BF888865D0DFF82CE10F2EA6F10F0C25DB0CEB0610A0F1F00C4FEA8F
:20488C002C27072F88BF07273C46062C88BF06245EF82400042303EB84037446E3581B1AA9
:2048AC0003F0FF04E80824BFC3F307200444A80824BFC3F307400444680828BF04EB136469
:2048CC0001E0002427465EF827E0E8080EF0FF0324BFCEF307200344A80824BFCEF3074060
:2048EC000344680828BF03EB1E63A4B2ACEB0727AAEB02007C43002804F1800403EB142368
:20490C00D8BF0120342208F0FF0742437A43B2FBF3F04FF6FF72824238BF101C802E80B230
:20492C00888005DA16F1800FB8BF6FF07F0600E07F26CE718D71194A12681F280A604FF004
:20494C00000208D340F2FF11814206D24008521C8142FBD301E01F208880124F0F38000971
:20496C0042EAC00247EA0200CBF8FB0F0026CBF8FF6FBDE8F88F0D4F0B4E494608203760B7
:20498C00891D0870BDE8F88F3C1100506E62084024220840902F00209C130050082009402F
:2049AC003500094000E7A48030100940FDFDA400AC3F00502DE9F0411C4615468C4208BF67
:2049CC00854282BF00230022E5E0002C08BF002D0AD100290EBF00286FF000006FF00001E1
:2049EC0000F0E1F8BDE8F0815FF000085FF0000E002C08BF8D429CBF2C1C0025070C47EA4A
:204A0C0001470E0CB44208BFBD429EBF5FEA044444EA15445FEA0545070A47EA01670E0AA2
:204A2C00B44208BFBD429EBF5FEA042444EA15645FEA0525470847EAC1774E08B44208BFFB
:204A4C00BD4200F29380870847EA81778E08B44208BFBD427CD8C70847EA4177CE08B44264
:204A6C0008BFBD4266D8070947EA01770E09B44208BFBD4250D8470947EAC1674E09B4427C
:204A8C0008BFBD423AD8870947EA81678E09B44208BFBD4224D8C70947EA4167CE09B442C4
:204AAC0008BFBD420DD8E60146EA5566EF01B14208BFB84201D3C01BB14158EB08085EEB8C
:204ACC000E0EA60146EA95664FEA8517B14208BFB84201D3C01BB14158EB08084EEB0E0E0A
:204AEC00660146EAD5666F01B14208BFB84201D3C01BB14158EB08084EEB0E0E260146EA14
:204B0C0015762F01B14208BFB84201D3C01BB14158EB08085EEB0E0EE60046EA5576EF00F1
:204B2C00B14208BFB84201D3C01BB14158EB08084EEB0E0EA60046EA9576AF00B14208BF22
:204B4C00B84201D3C01BB14158EB08084EEB0E0E660046EAD5766F00B14208BFB84201D32E
:204B6C00C01BB14158EB08085EEB0E0EA14208BFA84201D3401BA14158EB08085EEB0E0E47
:204B8C00A34208BFAA423EBF2D0A45EA0465240A89D3734642461E4617460B460246314609
:204BAC003846BDE8F08170472DE9F04F0D468246DFF89C81694CDFF8A891287809AF9B463C
:204BCC00ADF1240D0228079207D140466B680688188842F60211814224D0284604F024FD53
:204BEC005C48474601683888D0B15B480068014216D02068014204D1484600680088014239
:204C0C000ED05A48046840F2132734A600250097554B0196534F02951A8838682AA3A04734
:204C2C000A204EE052480068002E80462BD04A48006818EA000F26D0206818EA000F05D1AF
:204C4C0048460068008818EA000F1CD03879FE280CBF29A62FA6284604F0E6FC454940F283
:204C6C0001230C6800932EA201920290CDF80CA0002104963C4B05913A4E06911A88306866
:204C8C00414611A3A0473888009003270197079A5B462946504604F001FA06463648076865
:204CAC0076B96FB1786858B1284604F0BDFCCDF800B07C68079B02464FF489515046A047B8
:204CCC00304609B0BDE8F08F627574746F6E5F736572766963652E6300C046C04174747297
:204CEC00696275746520776173206E6F7420666F756E642E00C046C02D20726573746F7297
:204D0C00696E6720626F6E64656420737461746500C046C02D204F5441207772697465003A
:204D2C005772697465417474724342202843434344293A20706172616D3A20256420636F7E
:204D4C006E6E48616E646C653A2025642025730032E30000E8E20000400500003C0500001F
:204D6C004405000008E300008405000000E30000ECE2000004E30000B41B00202DE9F84392
:204D8C00814607F0E7F9002100B901216B4E30680028FCD06C4D01242D1DEF6A346009B159
:204DAC0007F0DEF9DFF89881C7F3072008F1BC01086007F0CFF9002100B92146306800286A
:204DCC00FCD02F68346009B107F0CAF9C7F38440C8F8C00007F0BEF90146002001B9204629
:204DEC00014630680028FCD0ED69346009B107F0B7F9C5F38120C8F8D000B9F5C061C8F811
:204E0C00B81000F0968098F8D80068B9C8F8D410D8F8C000C8F8C800D8F8BC70C8F8C47083
:204E2C00D8F8D060C8F8CC60D8F8D410D8F8BC60002954BF02206FF00100454605F1C803D0
:204E4C001A6801EB41014018411000EB917002EBA0021A60D5F8C810C5F8C46000291CDD50
:204E6C001E293DDDD5F8CC0030B93429B4BF15391E21C5F8C81025E02A29BABFD5F8C800EB
:204E8C000B381E20C5F8C800D5F8C4003F28B4BF401C3F20C5F8C4001FE0D5F8CC00032896
:204EAC0012D011F10B0FC6BFD5F8C8000B30201CC5F8C800D5F8C4000028CCBF401E002010
:204ECC00C5F8C400032009E011F1150FC6BFD5F8C8001530201CC5F8C8000020C5F8CC004A
:204EEC00B5F8C400174E30214FF47F4208230090304605F059F8009404214FF400321123A2
:204F0C00304605F051F8B5F8C80004214FF4F80212230090304605F047F8B5F8CC002021D1
:204F2C004FF440620A230090304605F03DF8BDE8F883002088F8D800BDE8F88300800C409F
:204F4C005C19002000A00C4000A00C402DE9FC416F4C204607F0DDF915460E46009007F061
:204F6C0083FA05F001078046B6F1FF3F0DD1606820B9B4F91200401C06B202E06068B0F95B
:204F8C001C6064490020C91C0870304606F03CFA0326002800F0A4806168814270D0009FED
:204FAC00DFF848C1B84231D03FB100990A68904209D0096800290091F7D1832E44D0404626
:204FCC0007F04EFA40E0604606F0D2FC00990868AA0803D202680B4601461A6000220A6064
:204FEC00009078B10C340146C87F40F00400C877684606F077FE0146204605F023FE009837
:20500C000028F0D1404607F02BFA1CE0604606F0AFFCA8083ABF20680068002020604046F7
:20502C0007F01EFA0C340099C87F40F00400C877684606F057FE0146204605F003FE00988E
:20504C0008B1A808EFD2832629482C4A007890B928480078012846D02748FBF745F80221E1
:20506C00104606F0BBFE2648007801283BD02548FBF73AF837E01046022106F0AFFE32E02F
:20508C00A90803D32168009100262660C27F0121B9401143C17707F0D7F90646002F14BFBA
:2050AC0019481A4806F05CFA404607F0D9F9A80811D3009878B10C340146C87F40F004002F
:2050CC00C877684606F00EFE0146204605F0BAFD00980028F0D1304607F0B2F9832602E058
:2050EC00404607F0BDF93046BDE8FC81502E0020BE2F0020BD2F002089270000E82D00203D
:20510C00BF2F0020857000000100020401000104582F0020B02E00202DE9F04FADF1840D4A
:20512C00209001F0C1F804F01BFF0024012804D106F09CFD022808BF012459490868C0F36F
:20514C008150012805D151F80C1C0120090E884004435448007806F0C9FADFF84C81DFF873
:20516C004CA1C8F8000030B15246FF2107467F1E02F8011BFBD120990968002501F0FF02D0
:20518C00FE2A1BD0DDF880C052462B46012701F0FF06FF2E0BD0B04203D907FA06F634426B
:2051AC0001D0022079E001F0FF01354353545CF8041F5B1C01F0FF06FE2EEAD1092002F0A1
:2051CC009BF83B49209824220823086001A8002107F02EF94FF0010901AA3E488DF81C9088
:2051EC00494607F021F9D8F800303BB33A4E00274FF0040BBA4609FA07F0044218D10542A8
:20520C0004BF07F0FF0141F4C04104D027482099C05D51F82010274802F01EFBF8B24FF09D
:20522C00FF3106F01FFCD8F80030C6F800A001E0C6F800B07F1C361D9F42DCD30AA8002123
:20524C003022082307F0ECF81B4D1D4A2878002410210AAB12901948009407F0DDF816A850
:20526C0028220823214607F0D3F8686816AA16491C9014481D94234607F0C6F8134A52F817
:20528C000D0C494620F4F85040F4005042F80D0C0F4BC2F8FF1F2046196021B0BDE8F08F21
:2052AC00B43F0050C42F00206C2B0020742E0020B42F0020007FC767A0E20000D42E0020BF
:2052CC008DBA0000B42D002045A000000D30094008000940F02E0020382D00202DE9F84F9E
:2052EC009A4693460D46044607F0BEF8DFF85C810AAFB8F91220B8F91010009040F6F87050
:20530C00891A0840082880F29280B8F91000401C6FF31F30A8F81000B8F9109006F0D4FA4F
:20532C00064604F1700006F023FBB56086F81EB0C6F804A0F460A6F81C9097E80C0051A0BF
:20534C0003C800251040F577D8F8002006F11007194087E80300002A5CD14046314605F083
:20536C0071FC00285BD0A4F894904448F17F0778DFF8DCA041F08001F17784F8965067B13F
:20538C0051460F784FB1344A3449324B0570012015700A781870521C0A70009807F060F877
:2053AC00D8F8040000284ED15146087800282DD12B480078012846D007F056F8054629485E
:2053CC000078F8B9B06804F0B7FA284B2C4A26491B681268086038B9284607F041F8244823
:2053EC00042106F0FBFC2EE0D0680968214C091AB1FBF3F1204607F02FF8204607F04CF893
:20540C0028461EE01C4901200870F9E7192006F0CBFD18E04046314605F014FC50B9B8F98B
:20542C00100000F6FF706FF31F30A8F810006FF0010905E0A4F89490F07F40F08000F077F6
:20544C00009807F00DF84846BDE8F88F582F0020BF2F0020C32F0020BC2F0020C52F00200C
:20546C00BE2F0020BD2F00209C2F0020DCE20000E82D0020502E0020C02F0020C22F00206B
:20548C00AC2F0020F1EFFF9F200000002DE9F04F694CA068ADF1440D002800F09D80DFF85A
:2054AC0090914FF00A0B4FF0010A4FF000088FE006F0DAFF21785F4BCA0002EB4112D21865
:2054CC00B2E8E01007ABA3E8E010E0CAE0C364CA4F1C07F01F0183E8640004F10C0562785D
:2054EC0021708A4208BF84F802A006F0B9FFBDF82000002808BF2E1C09D00346A62138A2DF
:20550C00284606F045FB284606F0DEFC4619079FB8B206F0F9F942A20CCA01F0F9F942A2C5
:20552C000CCA01F0F5F904F03BFEA91B00902EA23B0CA631304606F02BFB284606F0C4FC85
:20554C004219A0682946521B06F075FEBDF82200E0B106F055FFB9F8007037B909990A9F89
:20556C000346009124A2019720E00A9900910B9F01970C9E02960D9B03930E9A04920F9F05
:20558C000597109E0696099B02460FE00B9800900C9F01970D9E02960E9B03930F9A049207
:2055AC00CDF81480CDF818800A9B099A2846A62106F0EEFA284606F087FC42190D2002F865
:2055CC00010B02F801BBA0682946521B06F033FEA07800283FF46CAF11B0BDE8F08FC04679
:2055EC0023253036752000C05B2025642E25303375205D2000C046C07B6576743A20666D13
:20560C00743D25702C20617267733D5B307825782C2030782578202E2E2E5D7D00C046C087
:20562C00000000000000F03E0000000000408F408A0500001C0F0020640E00202DE9DF4F71
:20564C006548DFF88CC1DFF874B1DFF874A1DFF87491DFF87481DFF874E1078856480E1C5A
:20566C0032A313D10168002F5DD058460068014259D050460068014204D14846006800889A
:20568C00014250D040F2BF572CA62DE0012E17D0022E48D1002A46D10168002F43D058468B
:2056AC00006801423FD050460068014204D1484600680088014236D04FF4BA6723A613E027
:2056CC00A2B90168002F2ED05846006801422AD050460068014204D14846006800880142B3
:2056EC0021D040F2C55725A6002212E039480168CFB158460068014215D0504600680142A7
:20570C0004D148460068008801420CD040F2C95722A66046046800970196774646460292D4
:20572C003A883068A0470090BDE8DF8F70726F6A6563745F7A65726F2E6300C05061697286
:20574C00696E6720737461727465640052652D65737461626C697368656420706169726947
:20576C006E672066726F6D2073746F72656420626F6E6420696E666F2E00C0465061697274
:20578C00696E6720636F6D706C65746564207375636365737366756C6C792E0050616972E3
:2057AC00696E67206661696C65642E204572726F723A202530327800ECE200004005000056
:2057CC003C0500004405000008E300008405000000E30000E8E2000032E300002DE9F043B4
:2057EC008046D8F80460D8F808700C46ADF1340D06F03AFE3178012903D106F031FE002010
:20580C00A3E04FF0010986F8009006F029FE207870706078B07060687060A068B060E0681D
:20582C00F06020693061207D3075607D7075A07DB075A069B061207F3077607F0025707761
:20584C00A07F35623563102186F83C10B0772C4674627463B462B46386F82C4086F82D40AB
:20586C0086F83D40786801F047FD404601F0ACFD404602F02DFD78B935480068C0680146C5
:20588C0038688847786801F063FC06F0EDFD347006F0E6FDA04657E001A821463022082356
:2058AC0006F0BEFDCDF818803A7B09920095294AB96806F1680001AB06F0AEFD01A82822B6
:2058CC000823214606F0A4FD396907912249CDF8148006F1840001AA234606F095FD01A8D5
:2058EC0024220823214606F0A3FDB0788DF81C9038B906F1B800214601AA06F095FD17483C
:20590C003061707838B906F1D400214601AA06F08BFD1348F06001A821462422082306F094
:20592C00ABFD0694ADF8144006F1F0000D49CDF81C800A2201AB06F09BFD0B4A06F154007C
:20594C000421434605F034FE40460DB0BDE8F083D0010010F16C00005D9D00009FC2000072
:20596C0097C2000099800000C5BF00002DE9FC415E4C574D574EDFF860815A4F94F8E410FE
:20598C00481E0B2861D8DFE800F07B2C43062343062343067664042907D001220A2945F839
:2059AC00212C14BF0220032004E02021012045F8211C024684F8E200002045F8390C08273F
:2059CC00C5F8FF7FC5F8F37F45F8392CBDE8FC81052914BF09200620002584F8E400356023
:2059EC0070E094F8E1700120383D002FC5F81B0004BF0620002102D00021F160032084F8E4
:205A0C00E400032045F8010C31603068800859D294F8E400012503280DD000214046602286
:205A2C000523009104F0C0FA94F8E400062814BF0A200720D1E702200090002160220523FC
:205A4C00404604F0B1FA0420C7E706F0D5FCBDE8FC812249002622480E60012505600E2038
:205A6C0001F076FB022005F0FBFA84F8E45084F8E360BDE8FC81002038600C2578601FE05B
:205A8C001948006800680146202088472C3D41F61D560F2000214FF4C072072345F8010C27
:205AAC004046C5F803600225009504F07DFA404600214FF4C072072304F0A4FC012038607A
:205ACC0084F8E45004F1780006F0E6FCBDE8FC8139400C4038600C4000A00C402C500C4046
:205AEC0004800C4034600C40A00100105C1900202DE9F04F5D4C67690346ADF11C0D002F97
:205B0C0068D05148DFF848A1DFF84891DFF84881DFF848B1DFF848C1DFF848E106882FA289
:205B2C003BBB4A490968002E4ED05046006801424AD048460068014204D140460068008834
:205B4C00014241D0704640F269560568009627A3019338790290A078039000260496634686
:205B6C0005965F4606961E88386813463246A8472AE03D48016816B35046006801421ED047
:205B8C0048460068014204D1404600680088014215D0704640F26E56056800961EA6019643
:205BAC0038790290039300260496674605965B46069618683E8813463246A8476769397933
:205BCC0007F1080005F0F2FF606906F01FF800206061A07007B0BDE8F08FC04670726F6A70
:205BEC006563745F7A65726F2E6300C053656E74206D6573736167652077697468206F7073
:205C0C00636F6465203078253032782E20417474656D707420256400476176652075702098
:205C2C006D6573736167652077697468206F70636F6465203078253032782E20537461744C
:205C4C0075733A20256400C032E30000ECE20000400500003C0500004405000008E3000010
:205C6C008405000004E30000E8E2000020050020B0B5456884685148297BADF1180D012971
:205C8C001AD001462F7E227E637E4D4837F0010741EA020240EA030001904A48009218BFED
:205CAC00011CA27E1143029195F88D200323FF2A13D0014610460DE0A17E627E237E41F0ED
:205CCC000041024343F00043029195F88D0000933D490192014304230391FE2105F19000BF
:205CEC004DF82310694602F03DF9C5F89C00002808BF00205FD0287B344951F82000012800
:205D0C002BD02068B0F1804F14BF22220A22217ED5F89C0005F062FB2068B0F1804F14BF1C
:205D2C0021220922617ED5F89C0005F057FB2068B0F1804F14BF24220C22A17ED5F89C0093
:205D4C0005F04CFB95F88D10FF2933D02068B0F1804F14BF23220B2228E02068B0F1804F69
:205D6C0014BF21220922217ED5F89C0005F036FB2068B0F1804F14BF22220A22617ED5F8C1
:205D8C009C0005F02BFB2068B0F1804F14BF24220C22A17ED5F89C0005F020FB2068B0F140
:205DAC00804F14BF23220B2295F88D10D5F89C0005F014FB012006B0B0BDC046000480A0BE
:205DCC00004000800004C0A0002000805CDD0000F8B5414C201D0368B3F1FF3F08BF00230C
:205DEC0004F0BEF8002876D13C4E20683468070F04F0FF04802C28BF002404F0B1F84FF030
:205E0C00FF3578B1401E07D0401E012802D9801E13D014E08FB112E0381C5CD0801E0ED1DE
:205E2C0014340BE03846401E55D0801E53D0001F51D0401E03D1163400E00A3465B2162D2D
:205E4C0049DB27482749002501270560264E0F60264C376020680028FCD1274A161D244907
:205E6C00244F306820F0030001433868C0080CD2106810F0030F0AD041F0030030601068CE
:205E8C0000F003000328FAD101E041F001011B483160006820B11A4800681846FCF748F871
:205EAC00184819490560194F0A686FF35B4247EA0200086016490868C0F30130012806D188
:205ECC000A681448104040F400320A60086020680028FCD1F8BDFEE718130050A0100050CE
:205EEC00840460425C600C40082204430C00684204000020B03F005000400340800128436B
:205F0C00000120438C210840482003400000390104000940FFFFFCFC2DE9F04305466E688A
:205F2C00AF680C46ADF1340D06F09EFA96F8D910012903D106F094FA002084E04FF00108BA
:205F4C0086F8D98006F08CFA4FF00009C6F888902069306160697061207E3076207B30738E
:205F6C0020783070606886F8A490706060694946092828BF414686F88C10387B01F0BCF929
:205F8C00284603F051F9F87E86F88D002846FFF76FFE50B9387B01F0DBF806F065FA86F8A5
:205FAC00D99006F05DFA4D464CE001A849463022082306F035FA06957A790992CDF8009008
:205FCC00224A397906F11C0001AB06F025FA01A828220823494606F01BFAB96807911C49ED
:205FEC00059506F1380001AA4B4606F00DFA307878B901A849462422082306F019FA06F111
:20600C006C008DF81C80494601AA06F00DFA114800E0A068B06003F04FFA317BC6F8A00019
:20602C00012908D1D6F89C000B4906F09FF8D6F89C0000B18560094A06F1C40004212B4662
:20604C0005F0B6FA28460DB0BDE8F083257B0000E79A000087C20000F1A60000C1C10000C9
:20606C0070B5ADF1380D00F01FF9324908682822082340F00200086001A8002106F0C8F989
:20608C002D4EB0782E4907902C48002301AA06F0BBF900213022082301A806F0C1F900253B
:2060AC0019213078284AADF81C5001AB09902548009506F0B1F92822082301A8294606F005
:2060CC00A7F9F07822490790204801AA2B4606F09BF93022082301A8294606F0A1F9012452
:2060EC001A2170781C4AADF81C4001AB09901948009506F091F9194819492A46134606F0CD
:20610C00B7F91848F9F7F0FF1849194E0C70164835704FF6FF728283C577164B1D70164CF6
:20612C00257016490D70174E3560154A15700EB070BDC04600200940CEE20000E82D0020C5
:20614C00B1BD00000C2F002041B700001C2E00207D7A0000282F002099990000502E0020CA
:20616C002DB1000085700000942E0020BC2F0020C12F0020BE2F0020BD2F0020C22F002019
:20618C00C32F0020A02F00202DE9F04F0C464549CA7AADF12C0D84460592487B09900D795F
:2061AC0000958A7A488B4B8A0E7B91F805A091F802800492B1F846E008904A7A088B0392E7
:2061CC00CD7807900A7AC88A02920F6A0690CA79888A01928A79E146A9F54079B9F11D0F1F
:2061EC0010D8DFE809F05B5553514F4D4B494643413F3C3A380F34312E2B2923201E1C0F2E
:20620C0019181716BCF1280F49DA604604F07AF921E0099EB246D046CDF814801DE0089854
:20622C00079007980690DDF818E005E03831086820608888A08032E070460AE0B1F84400AC
:20624C0009E0B1F8420004E0B1F8400001E091F83E00034612E0208021E005980490049840
:20626C00039001E03231E2E7039802900298009006E0019A87310DE068310BE01846EAE742
:20628C00009D0BE02C31D2E7276008E0583100E048311022204601F080FD00E025700BB0CD
:2062AC00BDE8F08F1C1400202DE9F041444C94F8E700ADF1280D00286FD1394F387B012578
:2062CC000021242284F8E7507E6884F8E6000823C4F80C6101A806F0CFF8002604F10C006F
:2062EC00069601ABADF814602E490796324606F0BFF82D4904F1300001AB324606F0B8F893
:20630C002A4904F1540001AB324606F0B1F8B868014628468847DFF89C8025487B7B007880
:20632C00D8F80410C1F381571BB1032F03D184F8E150032F16D0022F14D0012F26D10320EB
:20634C001D4C009031464FF040521C23204603F02BFE009531464FF400720923204603F0E9
:20636C0023FE13E0022004F093FE032F0CBF4FF47A7142F21071114800685434B1FBF0F1A0
:20638C00204606F069F8204606F086F8D8F80000C00802D2304604F07BFE0AB0BDE8F0813B
:2063AC0024E20000EF8C0000C181000001860000C42F0020B03F005000A00C40DCE200008B
:2063CC005C1900202DE9F0430746880FADF1140D75D303F0E3FC404D00261C352E60394803
:2063EC0045F81C0C012000F014FA3748F9F77CFEBC68B14640F60A01344A6680537B118005
:20640C0090465680107BC2F8049003F0F00300F0F000107343F00103537300E01C46636898
:20642C0013B118888142F9D1C4F80480607B00F0F0006073264805F06CFF80680088C91F6B
:20644C0081421DD0491C81421AD03B8CC3B197F82C107E8497F82D00C7F8249001F0F00155
:20646C0000F0F00087F82C1040F0010087F82D0007F12003C8F80430507B00F0F00050731B
:20648C00B868694605F000FA684605F07DFDB86801F093FB28680028FCD02E60012005F04E
:2064AC00D3FA012808D0607B00F0F00040F0010060730848F9F718FEB86845F81C0C05B0B3
:2064CC00BDE8F08301010E04892700006C2F0020582F0020ED970000001004402DE9F04153
:2064EC0005F0DCFB3F4D3E4EDFF8FC800446A00820D330464168E9B1002242608B690A6990
:20650C000F6922401A4342F0020205F108038A611A68BA4301F110071A6097E80C002A68F7
:20652C000C301B1C9A432A6004F08CFB4046022105F054FC7068A10815D200F1100191E829
:20654C000C00002702EA04013B40002B08BF002909D081691440B0600C4384614FF4804116
:20656C00404605F03BFC7068002837D1304605F0D0FE071C32D01E48F9680068884228D105
:20658C00B86803F0D9F919490860E8B905F1080138690A68104308602B6807F1100494E8B7
:2065AC000300081C1843286000222A61B86845F80C0C05F1100000680028FAD0304605F0D8
:2065CC0091FB7760BDE8F081086802F09BFDBDE8F08140464FF4805105F000FCBDE8F08185
:2065EC00582F00200C100440E82D00209C2F0020AC2F00202DE9F04F0520ADF1540D8DF86F
:20660C00450004248DF844400B20109003A805F047FC344807900B9410A90C9103208DF89A
:20662C00240000208DF8180003A90D9004F048FD13902D4805682D48B0F800B02C480068BD
:20664C0005EA00092B48006805EA00082A48D0F800A02A4807882A48006812902948012477
:20666C0006682948BBF1000F046014D0B9F1000F11D0B8F1000F03D1BAF8000005420AD033
:20668C0040F2A720009029463A460FA312A0019012980294B0471398222111AA05F0C1FDEE
:2066AC0013980BA905F0C2FD139822210DF1450205F0B7FD13980BA905F0B8FD42F2107022
:2066CC0005F096FE641CCCE770726F6A6563745F7A65726F2E6300C0446174613A2025642E
:2066EC0000C046C040420F00ECE2000032E30000400500003C0500004405000084050000FC
:20670C0008E3000000E30000440500202DE9F0430646ADF11C0D05F067FE04F059FC4FF0F8
:20672C0000090546CDF80C9005F04AFD30F0010002D00398A84202D16FF0040066E0706890
:20674C004C4658B1B0F1FF3F05D004A904F028FC30B1804659E04FF0FF3000E020460490F1
